S01700004763634170706C69636174696F6E312E737265635B
S11300000C9434000C9481000C9498000C944900D6
S11300100C9449000C9449000C9449000C94490038
S11300200C9449000C9449000C9449000C94490028
S11300300C9449000C9449000C9449000C94490018
S11300400C9449000C9449000C9449000C94490008
S11300500C9449000C9449000C9449000C944900F8
S11300600C9449000C94490011241FBECFEFD8E032
S1130070DEBFCDBF11E0A0E0B1E0E2E6F1E002C0F6
S113008005900D92A230B107D9F70E9456000C9446
S1130090AF000C940000009741F0EFE9FFE03197C6
S11300A0F1F700C000000197C1F708958FEF84B9FC
S11300B08EE08093690083E08DBB7894D1E0C0E149
S11300C0D5B985B1803161F0809100019091010131
S11300D00E944B0085B1880F85B985B18031A1F7A5
S11300E0C5B985B1813061F380910001909101011E
S11300F00E944B0085B1869585B985B18130A1F701
S1130100DFCF1F920F920FB60F9211248F939F93FC
S113011080910001909101010A96909301018093CE
S113012000019F918F910F900FBE0F901F90189513
S11301301F920F920FB60F9211248F939F93809169
S11301400001909101010A979093010180930001AD
S11301509F918F910F900FBE0F901F901895F89458
S1050160FFCFCB
S1050162640033
S9030000FC
