:100000000C9434000C943E000C943E000C943E0082
:100010000C943E000C943E000C943E000C943E0068
:100020000C943E000C943E000C943E000C943E0058
:100030000C943E000C943E000C943E000C943E0048
:100040000C943E000C943E000C943E000C943E0038
:100050000C943E000C9457000C943E000C943E000F
:100060000C943E000C943E0011241FBECFEFD8E04C
:10007000DEBFCDBF0E9440000C9467000C940000CE
:100080008FEF84B9ECE7F0E0808180648083EAE759
:10009000F0E08081846080838081806880838081BB
:1000A000886080837894808180648083FFCF1F92F2
:1000B0000F920FB60F9211248F9380917800809148
:1000C00079008F910F900FBE0F901F901895F894A4
:0200D000FFCF60
:00000001FF
