:100000000C9434000C943E000C943E000C943E0082
:100010000C943E000C943E000C943E000C943E0068
:100020000C943E000C943E000C943E000C943E0058
:100030000C943E000C943E000C943E000C943E0048
:100040000C943E000C943E000C943E000C943E0038
:100050000C943E000C9460000C943E000C943E0006
:100060000C943E000C943E0011241FBECFEFD8E04C
:10007000DEBFCDBF0E9440000C947B000C940000BA
:100080008FEF84B9ECE7F0E0808180648083808129
:1000900085608083808180628083EAE7F0E08081F0
:1000A000806880838081886080838081876080838E
:1000B00080E280937E008081806480837894FFCF8B
:1000C0001F920F920FB60F9211248F93EF93FF930D
:1000D0008091790086958695869585B9EAE7F0E066
:1000E000808180648083FF91EF918F910F900FBE8C
:0A00F0000F901F901895F894FFCFB1
:00000001FF
