S00E000054696D6572732E73726563A2
S11300000C9434000C9446000C9446000C94460066
S11300100C9446000C9446000C9446000C94460044
S11300200C9446000C9446000C9446000C94660014
S11300300C9446000C9446000C948B000C944600DF
S11300400C9446000C9446000C9446000C94460014
S11300500C9446000C9446000C9446000C94460004
S11300600C9446000C94460011241FBECFEFD8E038
S1130070DEBFCDBF21E0A0E0B1E001C01D92A430FD
S1130080B207E1F70E9448000C94B3000C940000FE
S11300908FEF84B9E1E8F0E083E0808380818860B9
S11300A0808384EC99E0909389008093880092E0A7
S11300B090936F0085B5826085BD85B5826085BDEE
S11300C088EC87BD90936E007894FFCF1F920F92B7
S11300D00FB60F9211248F939F93809102019091F8
S11300E00301019690930301809302018091020120
S11300F090910301499744F095B181E0892785B92E
S113010010920301109202019F918F910F900FBEE4
S11301100F901F9018951F920F920FB60F921124F3
S11301202F938F939F9380910001909101010196E9
S1130130909301018093000180910001909101014D
S1130140843C994044F095B182E0892785B91092A6
S11301500101109200019F918F912F910F900FBE7A
S10D01600F901F901895F894FFCF3C
S9030000FC
