S00E000054696D6572732E73726563A2
S11300000C9434000C9446000C9446000C94460066
S11300100C9446000C9446000C9446000C94460044
S11300200C9446000C9446000C9446000C94580022
S11300300C9446000C9446000C9446000C94460024
S11300400C9446000C9446000C9446000C94460014
S11300500C9446000C9446000C9446000C94460004
S11300600C9446000C94460011241FBECFEFD8E038
S1130070DEBFCDBF21E0A0E0B1E001C01D92A230FF
S1130080B207E1F70E9448000C9479000C94000038
S113009081E084B98DE08093810083EC90E09093BB
S11300A089008093880082E080936F007894FFCF6A
S11300B01F920F920FB60F9211248F939F938091EA
S11300C00001909101010196909301018093000138
S11300D0499744F095B181E0892785B910920101CF
S11300E0109200019F918F910F900FBE0F901F905F
S10900F01895F894FFCFFF
S9030000FC
