S01700004763634170706C69636174696F6E312E737265635B
S11300000C9434000C9446000C9480000C9446002C
S11300100C9446000C9446000C9446000C94460044
S11300200C9446000C9446000C9446000C94460034
S11300300C9446000C9446000C9446000C94460024
S11300400C9446000C9446000C9446000C94460014
S11300500C9446000C9446000C9446000C94460004
S11300600C9446000C94460011241FBECFEFD8E038
S1130070DEBFCDBF21E0A0E0B1E001C01D92A230FF
S1130080B207E1F70E9448000C94A5000C9400000C
S11300908FE184B988E08BB982E08DBB789431E03C
S11300A020E18091000190910101892B39F135B94A
S11300B085B1803179F04FEF80E792E04150804084
S11300C09040E1F700C0000085B1880F85B985B183
S11300D0803189F725B985B1813019F34FEF80E775
S11300E092E0415080409040E1F700C0000085B1AB
S11300F0869585B985B1813089F7D3CF2898D1CF3A
S11301001F920F920FB60F9211248F939F93809199
S1130110000190910101892B39F481E090E09093E2
S113012001018093000104C01092010110920001AA
S11301308FE19EE40197F1F700C000009F918F9139
S11101400F900FBE0F901F901895F894FFCFEC
S9030000FC
